:020000040000FA
:020000000C28CA
:080008008C0003088D000D08B7
:1000100083008C0E0C0E0900831686017C3085004F
:100020008312A001A1018501C030860005140510CE
:10003000C030860085148510A00F1328A10F132847
:100040008501C030860005140510F930860085143E
:100050008510A00F2028A10F20288501C030860020
:1000600005140510A430860085148510A00F2D28D6
:10007000A10F2D288501C030860005140510B03071
:10008000860085148510A00F3A28A10F3A28850113
:10009000C03086000514051099308600851485103F
:1000A000A00F4728A10F47288501C03086000514FE
:1000B00005109230860085148510A00F5428A10FDA
:1000C00054288501C0308600051405108230860052
:1000D00085148510A00F6128A10F61288501C0300B
:1000E000860005140510F830860085148510A00FD1
:1000F0006E28A10F6E288501C030860005140510FA
:100100008030860085148510A00F7B28A10F7B28E6
:100110008501C030860005140510903086008514D6
:100120008510A00F8828A10F88288501F930860046
:1001300005140510C030860085148510A00F952881
:10014000A10F95288501F930860005140510F930B6
:10015000860085148510A00FA228A10FA228850172
:10016000F930860005140510A4308600851485102A
:10017000A00FAF28A10FAF288501F9308600051424
:100180000510B030860085148510A00FBC28A10F83
:10019000BC288501F93086000514051099308600C9
:1001A00085148510A00FC928A10FC9288501F93031
:1001B0008600051405109230860085148510A00F66
:1001C000D628A10FD6288501F93086000514051020
:1001D0008230860085148510A00FE328A10FE32844
:1001E0008501F930860005140510F8308600851465
:1001F0008510A00FF028A10FF0288501F9308600A6
:10020000051405108030860085148510A00FFD2888
:10021000A10FFD288501F9308600051405109030E6
:10022000860085148510A00F0A29A10F0A298501CF
:10023000A430860005140510C03086008514851092
:10024000A00F1729A10F17298501A43086000514D6
:100250000510F930860085148510A00F2429A10F00
:1002600024298501A430860005140510A4308600D9
:1002700085148510A00F3129A10F31298501A430E3
:10028000860005140510B030860085148510A00F77
:100290003E29A10F3E298501A430860005140510D2
:1002A0009930860085148510A00F4B29A10F4B298A
:1002B0008501A4308600051405109230860085144F
:1002C0008510A00F5829A10F58298501A430860058
:1002D000051405108230860085148510A00F65294D
:1002E000A10F65298501A430860005140510F8309A
:1002F000860085148510A00F7229A10F722985012F
:10030000A430860005140510803086008514851001
:10031000A00F7F29A10F7F298501A4308600051435
:1003200005109030860085148510A00F8C29A10F30
:100330008C298501B030860005140510C030860078
:1003400085148510A00F9929A10F99298501B03036
:10035000860005140510F930860085148510A00F5D
:10036000A629A10FA6298501B03086000514051025
:10037000A430860085148510A00FB329A10FB329DE
:100380008501B030860005140510B0308600851454
:100390008510A00FC029A10FC0298501B0308600AB
:1003A000051405109930860085148510A00FCD29FD
:1003B000A10FCD298501B0308600051405109230BB
:1003C000860085148510A00FDA29A10FDA2985018E
:1003D000B030860005140510823086008514851023
:1003E000A00FE729A10FE7298501B0308600051489
:1003F0000510F830860085148510A00FF429A10F90
:10040000F4298501B030860005140510803086007F
:1004100085148510A00F012AA10F012A8501B03093
:100420008600051405109030860085148510A00FF5
:100430000E2AA10F0E2A8501993086000514051099
:10044000C030860085148510A00F1B2AA10F1B2A1F
:1004500085019930860005140510F9308600851451
:100460008510A00F282AA10F282A8501993086001F
:1004700005140510A430860085148510A00F352AB8
:10048000A10F352A85019930860005140510B0307A
:10049000860085148510A00F422AA10F422A8501EB
:1004A0009930860005140510993086008514851052
:1004B000A00F4F2AA10F4F2A8501993086000514FD
:1004C00005109230860085148510A00F5C2AA10FBC
:1004D0005C2A85019930860005140510823086005B
:1004E00085148510A00F692AA10F692A850199300A
:1004F000860005140510F830860085148510A00FBD
:10050000762AA10F762A85019930860005140510F8
:100510008030860085148510A00F832AA10F832ABE
:1005200085019930860005140510903086008514E9
:100530008510A00F902AA10F902A85019230860085
:1005400005140510C030860085148510A00F9D2A63
:10055000A10F9D2A85019230860005140510F930FF
:10056000860085148510A00FAA2AA10FAA2A85014A
:100570009230860005140510A4308600851485107D
:10058000A00FB72AA10FB72A850192308600051463
:100590000510B030860085148510A00FC42AA10F65
:1005A000C42A850192308600051405109930860012
:1005B00085148510A00FD12AA10FD12A8501923070
:1005C0008600051405109230860085148510A00F52
:1005D000DE2AA10FDE2A850192308600051405105F
:1005E0008230860085148510A00FEB2AA10FEB2A1C
:1005F00085019230860005140510F83086008514B8
:100600008510A00FF82AA10FF82A850192308600E4
:10061000051405108030860085148510A00F052B69
:10062000A10F052B8501923086000514051090302E
:10063000860085148510A00F122BA10F122B8501A7
:100640008230860005140510C030860085148510A0
:10065000A00F1F2BA10F1F2B8501823086000514D0
:100660000510F930860085148510A00F2C2BA10FE2
:100670002C2B85018230860005140510A4308600DD
:1006800085148510A00F392BA10F392B85018230DD
:10069000860005140510B030860085148510A00F63
:1006A000462BA10F462B85018230860005140510CC
:1006B0009930860085148510A00F532BA10F532B62
:1006C000850182308600051405109230860085145D
:1006D0008510A00F602BA10F602B85018230860052
:1006E000051405108230860085148510A00F6D2B2F
:1006F000A10F6D2B85018230860005140510F8309E
:10070000860085148510A00F7A2BA10F7A2B850106
:10071000823086000514051080308600851485100F
:10072000A00F872BA10F872B85018230860005142F
:1007300005109030860085148510A00F942BA10F12
:10074000942B8501F830860005140510C030860012
:1007500085148510A00FA12BA10FA12B8501F830C6
:10076000860005140510F930860085148510A00F49
:10077000AE2BA10FAE2B8501F830860005140510B5
:10078000A430860085148510A00FBB2BA10FBB2BB6
:100790008501F830860005140510B03086008514F8
:1007A0008510A00FC82BA10FC82B8501F83086003B
:1007B000051405109930860085148510A00FD52BDF
:1007C000A10FD52B8501F830860005140510923055
:1007D000860085148510A00FE22BA10FE22B850166
:1007E000F8308600051405108230860085148510C7
:0807F000A00FEF2BA10FEF2B6E
:02400E00F13F80
:00000001FF
