:020000040000FA
:020000002228B4
:080008008C0003088D00063096
:100010008100940A1408FA3C031D1C280130940046
:10002000950A951C1C289501960A16080A3C031986
:1000300096010319980A98010B110D0883008C0E84
:100040000C0E0900950196010130940083120630D0
:1000500081008316003086008500A0308B000108E7
:10006000C039023881008312850116084B208600B2
:1000700085154220851118084B2086000515422061
:10008000051135280230910080009200920B46281D
:10009000910B442808008207C034F934A434B034EA
:0C00A000993492348234F8348034903467
:02400E00F13F80
:00000001FF
