:020000040000FA
:020000003128A5
:08000800A800030EA7000A087E
:10001000A6008B1C19288B10861F14282A080F395C
:1000200020207F398600192829080F3920208038A0
:10003000860026088A00270E8300A80E280E0900D5
:1000400082078834BB34C1349134B234943484345C
:10005000B9348034B034FF34FF34FF34FF34FF341C
:10006000FF340730831600308600831216308B0071
:100070008316FF308B008B1483128B148B17831223
:10008000A901AA015320532053205320AA0A2A0869
:100090000A3C031D4228AA01A90A29080A3C031D9B
:1000A0004228A9014228FF305C2864305C283230A5
:1000B0005C2814305C280530A100C730A200013054
:1000C000A300A20B6428A30B6128A10B5D280034B8
:02400E00F13F80
:00000001FF
