:020000040000FA
:020000000C28CA
:080008008C0003088D000D08B7
:1000100083008C0E0C0E09006220403086006720A1
:1000200069207930860067206920243086006720A7
:1000300069203030860067206920193086006720EB
:100040006920123086006720692002308600672010
:10005000692078308600672069200030860067209C
:1000600069201030860067206920FF3086006720F5
:1000700069201030860067206920003086006720E4
:10008000692078308600672069200230860067206A
:1000900069201230860067206920193086006720A9
:1000A0006920303086006720692024308600672070
:1000B00069207930860067206920403086006720FB
:1000C00069200D28831680308600831208000330D3
:1000D000A0000A30A100FF30A200A20B6D28A10BE6
:1000E0006B28A00B6928080082078834BB34C13410
:1000F0009134B23494348434B9348034B034FF341D
:0A010000FF34FF34FF34FF34FF34F6
:02400E00F13F80
:00000001FF
